{
  "contractName": "Company",
  "abi": [
    {
      "inputs": [
        {
          "internalType": "address",
          "name": "",
          "type": "address"
        },
        {
          "internalType": "uint256",
          "name": "",
          "type": "uint256"
        }
      ],
      "name": "personal",
      "outputs": [
        {
          "internalType": "string",
          "name": "",
          "type": "string"
        }
      ],
      "stateMutability": "view",
      "type": "function",
      "constant": true
    },
    {
      "inputs": [
        {
          "internalType": "string",
          "name": "note",
          "type": "string"
        }
      ],
      "name": "addNote",
      "outputs": [],
      "stateMutability": "nonpayable",
      "type": "function"
    },
    {
      "inputs": [
        {
          "internalType": "address",
          "name": "own",
          "type": "address"
        },
        {
          "internalType": "uint16",
          "name": "index",
          "type": "uint16"
        }
      ],
      "name": "getNotes",
      "outputs": [
        {
          "internalType": "string",
          "name": "",
          "type": "string"
        }
      ],
      "stateMutability": "view",
      "type": "function",
      "constant": true
    },
    {
      "inputs": [
        {
          "internalType": "uint256",
          "name": "a",
          "type": "uint256"
        },
        {
          "internalType": "uint256",
          "name": "b",
          "type": "uint256"
        }
      ],
      "name": "getNumber",
      "outputs": [
        {
          "internalType": "uint256",
          "name": "",
          "type": "uint256"
        }
      ],
      "stateMutability": "pure",
      "type": "function",
      "constant": true
    },
    {
      "inputs": [
        {
          "internalType": "address",
          "name": "own",
          "type": "address"
        }
      ],
      "name": "getNotesLen",
      "outputs": [
        {
          "internalType": "uint256",
          "name": "",
          "type": "uint256"
        }
      ],
      "stateMutability": "view",
      "type": "function",
      "constant": true
    }
  ],
  "bytecode": "0x608060405234801561001057600080fd5b506109dd806100206000396000f3fe608060405234801561001057600080fd5b50600436106100575760003560e01c8063787b582d1461005c57806395540c3f1461008c578063a4edff47146100bc578063cfaa7942146100d8578063f349048914610108575b600080fd5b610076600480360381019061007191906104d3565b610138565b6040516100839190610519565b60405180910390f35b6100a660048036038101906100a19190610560565b610183565b6040516100b39190610639565b60405180910390f35b6100d660048036038101906100d19190610790565b61023c565b005b6100f260048036038101906100ed9190610813565b6102b7565b6040516100ff9190610639565b60405180910390f35b610122600480360381019061011d9190610853565b6103a8565b60405161012f9190610519565b60405180910390f35b60008060008373ffffffffffffffffffffffffffffffffffffffff1673ffffffffffffffffffffffffffffffffffffffff168152602001908152602001600020805490509050919050565b6000602052816000526040600020818154811061019f57600080fd5b906000526020600020016000915091505080546101bb906108c2565b80601f01602080910402602001604051908101604052809291908181526020018280546101e7906108c2565b80156102345780601f1061020957610100808354040283529160200191610234565b820191906000526020600020905b81548152906001019060200180831161021757829003601f168201915b505050505081565b6000803373ffffffffffffffffffffffffffffffffffffffff1673ffffffffffffffffffffffffffffffffffffffff168152602001908152602001600020819080600181540180825580915050600190039060005260206000200160009091909190915090805190602001906102b39291906103be565b5050565b60606000808473ffffffffffffffffffffffffffffffffffffffff1673ffffffffffffffffffffffffffffffffffffffff1681526020019081526020016000208261ffff168154811061030d5761030c6108f3565b5b906000526020600020018054610322906108c2565b80601f016020809104026020016040519081016040528092919081815260200182805461034e906108c2565b801561039b5780601f106103705761010080835404028352916020019161039b565b820191906000526020600020905b81548152906001019060200180831161037e57829003601f168201915b5050505050905092915050565b600081836103b69190610951565b905092915050565b8280546103ca906108c2565b90600052602060002090601f0160209004810192826103ec5760008555610433565b82601f1061040557805160ff1916838001178555610433565b82800160010185558215610433579182015b82811115610432578251825591602001919060010190610417565b5b5090506104409190610444565b5090565b5b8082111561045d576000816000905550600101610445565b5090565b6000604051905090565b600080fd5b600080fd5b600073ffffffffffffffffffffffffffffffffffffffff82169050919050565b60006104a082610475565b9050919050565b6104b081610495565b81146104bb57600080fd5b50565b6000813590506104cd816104a7565b92915050565b6000602082840312156104e9576104e861046b565b5b60006104f7848285016104be565b91505092915050565b6000819050919050565b61051381610500565b82525050565b600060208201905061052e600083018461050a565b92915050565b61053d81610500565b811461054857600080fd5b50565b60008135905061055a81610534565b92915050565b600080604083850312156105775761057661046b565b5b6000610585858286016104be565b92505060206105968582860161054b565b9150509250929050565b600081519050919050565b600082825260208201905092915050565b60005b838110156105da5780820151818401526020810190506105bf565b838111156105e9576000848401525b50505050565b6000601f19601f8301169050919050565b600061060b826105a0565b61061581856105ab565b93506106258185602086016105bc565b61062e816105ef565b840191505092915050565b600060208201905081810360008301526106538184610600565b905092915050565b600080fd5b600080fd5b7f4e487b7100000000000000000000000000000000000000000000000000000000600052604160045260246000fd5b61069d826105ef565b810181811067ffffffffffffffff821117156106bc576106bb610665565b5b80604052505050565b60006106cf610461565b90506106db8282610694565b919050565b600067ffffffffffffffff8211156106fb576106fa610665565b5b610704826105ef565b9050602081019050919050565b82818337600083830152505050565b600061073361072e846106e0565b6106c5565b90508281526020810184848401111561074f5761074e610660565b5b61075a848285610711565b509392505050565b600082601f8301126107775761077661065b565b5b8135610787848260208601610720565b91505092915050565b6000602082840312156107a6576107a561046b565b5b600082013567ffffffffffffffff8111156107c4576107c3610470565b5b6107d084828501610762565b91505092915050565b600061ffff82169050919050565b6107f0816107d9565b81146107fb57600080fd5b50565b60008135905061080d816107e7565b92915050565b6000806040838503121561082a5761082961046b565b5b6000610838858286016104be565b9250506020610849858286016107fe565b9150509250929050565b6000806040838503121561086a5761086961046b565b5b60006108788582860161054b565b92505060206108898582860161054b565b9150509250929050565b7f4e487b7100000000000000000000000000000000000000000000000000000000600052602260045260246000fd5b600060028204905060018216806108da57607f821691505b6020821081036108ed576108ec610893565b5b50919050565b7f4e487b7100000000000000000000000000000000000000000000000000000000600052603260045260246000fd5b7f4e487b7100000000000000000000000000000000000000000000000000000000600052601160045260246000fd5b600061095c82610500565b915061096783610500565b9250827fffffffffffffffffffffffffffffffffffffffffffffffffffffffffffffffff0382111561099c5761099b610922565b5b82820190509291505056fea264697066735822122081228b40167d5f18d8253390af7f8dc9eeeb93219580430c515117a56ef0649464736f6c634300080e0033",
  "immutableReferences": {},
  "source": "// SPDX-License-Identifier: MIT\npragma solidity >=0.4.22 <0.9.0;\n\ncontract Company {\n\n    mapping(address => string [] ) public personal;\n    // address[16] public personal;  // \n\n\n\n    function addNote( string memory note) public {\n        personal[msg.sender].push(note);\n\n    }\n\n    // \n    function getNotes( address own, uint16 index ) public view returns (string memory) {\n        return personal[own][index] ;\n    }\n\n    function getNumber( uint a, uint b ) pure public  returns ( uint  ) {\n        return a + b  ;\n    }\n\n    function getNotesLen(address own) public view returns (uint) {\n        return personal[own].length;\n    }\n\n\n}\n",
  "sourcePath": "/Users/larrykuo/Documents/blockchain-project/contracts/Company_File.sol",
  "compiler": {
    "name": "solc",
    "version": "0.8.14+commit.80d49f37.Emscripten.clang"
  },
  "schemaVersion": "3.4.7",
  "updatedAt": "2022-06-13T18:58:08.842Z",
  "networkType": "ethereum",
  "devdoc": {
    "kind": "dev",
    "methods": {},
    "version": 1
  },
  "userdoc": {
    "kind": "user",
    "methods": {},
    "version": 1
  }
}